:020000040000FA
:0400000010EF00F00D
:020004000000FA
:10002000956A020EF76E000EF66E0900F5CF8CFF92
:100030004EEC00F0200EF66415EF00F0F66A030EA9
:10004000F76E000EF66EF66A0900F5CF8CFF4EECE7
:1000500000F0200EF66424EF00F0F66A040EF76E4E
:10006000000EF66EF66A0900F5CF8CFF4EEC00F03C
:10007000200EF66433EF00F0F66A050EF76E000E00
:10008000F66EF66A0900F5CF8CFF4EEC00F0080E14
:10009000F66442EF00F0F66A10EF00F0050E206EF5
:1000A00056EC00F0202E50EF00F01200280E216ECA
:1000B0005EEC00F0212E58EF00F01200960E226E3A
:0A00C0000000222E60EF00F0120095
:100200000000003877001C065E7700796D003E54D0
:100210007700796D7379390679005E79007C06394B
:020220000600D6
:10030000393879787709006D0600673E06795079AB
:100310006D003777547879547950787900795400A2
:02032000790062
:10040000673E0638067C50065C005E797C796D009C
:1004100073795E773879775000747739067700778B
:020420005E007C
:0A0500007938775478790000000084
:020000040030CA
:0100010000FE
:0100020018E5
:010003001EDE
:010005008179
:010006008178
:00000001FF
