:020000040000FA
:0400000010EF00F00D
:020004000000FA
:100020009590010E236E010E236224EF00F019EF6C
:1000300000F08C9081A013EF00F0000E236E81B0D1
:100040001FEF00F013EF00F081A029EF00F02EEF7A
:1000500000F08C7035EC00F013EF00F0010E236E11
:1000600081B030EF00F013EF00F0640E206E3DEC35
:1000700000F0202E37EF00F01200640E216E45ECE8
:1000800000F0212E3FEF00F012000A0E226E000059
:08009000222E47EF00F01200E0
:020000040030CA
:0100010000FE
:0100020018E5
:010003001EDE
:010005008179
:010006008178
:00000001FF
