:020000040000FA
:0400000010EF00F00D
:020004000000FA
:100020009268956A936AAAEC03F02CEC03F00C0E2C
:10003000C16EB40EC06E020EF76E19EC03F0010E25
:10004000C26E27EC03F0540E23EC03F0450E23ECB4
:1000500003F04D0E23EC03F0500E23EC03F0450E9D
:1000600023EC03F0520E23EC03F0410E23EC03F0DB
:10007000540E23EC03F0550E23EC03F0520E23EC48
:1000800003F0410E23EC03F03A0E23EC03F0C2829E
:10009000C2B248EF00F0000E00EC03F0C350F66E61
:1000A0000800F550C0EC03F00250300F23EC03F0D1
:1000B0000350300F23EC03F00450300F23EC03F017
:0400C00047EF00F016
:1002000000010102020303040405050606060707B0
:10021000080809090A0A0B0B0C0C0D0D0E0E0F0F26
:100220001010111112121313141415151616171796
:1002300018181919191A1A1B1B1C1C1D1D1E1E1F0C
:100240001F2020212122222323242425252626277E
:1002500027282829292A2A2B2B2C2C2D2D2D2E2EF0
:100260002F2F303031313232333334343535363666
:100270003737383839393A3A3B3B3C3C3D3D3E3ED6
:100280003F3F40404141414242434344444545464B
:10029000464747484849494A4A4B4B4C4C4D4D4EBE
:1002A0004E4F4F505051515252535354545555552F
:1002B00056565757585859595A5A5B5B5C5C5D5DA6
:1002C0005E5E5F5F60606161626263636464656516
:1002D000666667676868686969696A6A6B6B6C6C8F
:1002E0006D6D6E6E6F6F7070717172727373747406
:0802F000757576767777787852
:10060000C00F066E55EC03F01200800F066E55EC1D
:1006100003F012000F0E066E55EC03F01200080EE8
:10062000066E55EC03F01200020E066E55EC03F058
:1006300012000C0E066E55EC03F012000F0E066E43
:1006400055EC03F01200066E6EEC03F01200010E82
:10065000066E55EC03F012008C908C92300E4AEC32
:1006600003F09FEC03F09FEC03F09FEC03F0200EEF
:100670004AEC03F0010E55EC03F0280E55EC03F0A4
:100680000F0E55EC03F0060E55EC03F0010E55EC81
:1006900003F01200076E0F0E8C16F00E07140750B1
:1006A0008C128C848C94000012008C90066E9FEC4F
:1006B00003F09FEC03F09FEC03F0080E956EB5EC91
:1006C00003F08C928C948C900650F00B4AEC03F063
:1006D000063A0650F00B4AEC03F012008C80066ECE
:1006E0009FEC03F09FEC03F09FEC03F0080E956E77
:1006F000B5EC03F08C928C948C800650F00B4AEC95
:1007000003F0063A0650F00B4AEC03F01200400EDC
:100710000D24066E55EC03F00900F550056EFF0E32
:10072000055CD8B49AEF03F005C006F06EEC03F058
:100730008CEF03F0800E066E55EC03F01200070EEE
:100740000B6E640E0C6E0C2EA3EF03F00B2EA1EFBC
:1007500003F01200320E0B6E640E0C6E0C2EAEEF18
:1007600003F00B2EACEF03F01200030E0B6E090E1C
:100770000C6E0C2EB9EF03F00B2EB7EF03F0120046
:10078000006E016A046A036A026A003604360236A1
:100790000450036E033A0F0E03160416070E016091
:1007A0001200050E045CD8B0E1EC03F0050E035C0A
:1007B000D8B0E4EC03F0033A03500412012AC5EF69
:0E07C00003F0030E04261200030E032612009F
:020000040030CA
:0100010000FE
:0100020018E5
:010003001EDE
:010005008179
:010006008178
:00000001FF
