:020000040000FA
:0400000007EF00F016
:0A000800538263ED0CF0BAEF0CF028
:10080000004144433A00544F4E3A00493A004F3AAF
:1008100000001250800B1B6E12501224216E11BE6C
:1008200021802150D8B40DD02128D8A408D0000EA2
:100830000F6E000E106E000E116E000E126E118EF5
:1008400008D0000E0F6E000E106E000E116E000E1E
:10085000126E1650800B1B1A16501624206E15BEF1
:1008600020802050D8B40DD02028D8A408D0000E65
:10087000136E000E146E000E156E000E166E158EA1
:1008800008D0000E136E000E146E000E156E000ED2
:10089000166E2050D8B403D02150D8A409D0000E31
:1008A0000F6E000E106E000E116E000E126E120012
:1008B00015500F02F3CF26F0F4CF27F026501C6E10
:1008C0001D6A1E6A1F6A2750226E236A246A256ADF
:1008D00014501002F3CF26F0F4CF27F026501C2638
:1008E000000E1D221E221F2227502226000E232228
:1008F0002422252213501102F3CF26F0F4CF27F043
:1009000026501C26000E1D221E221F2227502226A2
:10091000000E2322242225221EC01FF01DC01EF01F
:100920001CC01DF01C6A13501002F3CF26F0F4CF48
:1009300027F026501C2627501D22000E1E22000ED6
:100940001F2214500F02F3CF26F0F4CF27F02650C9
:100950001C2627501D22000E1E22000E1F221EC024
:100960001FF01DC01EF01CC01DF01C6A13500F02AA
:10097000F3CF26F0F4CF27F026501C2627501D2257
:10098000000E1E22000E1F2215501002F3CF26F07B
:10099000F4CF27F02650222627502322000E2422AF
:1009A000000E252214501102F3CF26F0F4CF27F0C9
:1009B0002650222627502322000E2422000E252214
:1009C00015501102F3CF26F0F4CF27F02650176E02
:1009D0002750186E196A1A6A19C01AF018C019F04F
:1009E00017C018F0176A17502226185023221950E2
:1009F00024221A5025221CC017F01DC018F01EC05A
:100A000019F01FC01AF0190E05D0D8901A321932F9
:100A100018321732E82EF9D7175022261850232201
:100A2000195024221A5025221EC01FF01DC01EF08E
:100A30001CC01DF01C6A205021C017F0186A172630
:100A4000000E1822820E1724266EFF0E1820276E25
:100A50000FD0D89022362336243625361FBE22806A
:100A6000D8901C361D361E361F362606D8A02706FF
:100A700024AEEFD7000E206E1FAE17D0FF0E1C1451
:100A8000176EFF0E1D14186EFF0E1E14196E7F0ECA
:100A90001F141A6E1750181019101A10D8B403D05A
:100AA000010E206E02D022B0FBD72050D8B41FD048
:100AB000010E2226000E23222422252225A017D053
:100AC00022C017F023C018F024C019F025C01AF076
:100AD0001A341A3219321832173217C022F018C0DD
:100AE00023F019C024F01AC025F0264A272A27BE71
:100AF0000DD0275003E12628D8A008D0000E226E82
:100B0000000E236E800E246E7F0E20D027BE05D0EF
:100B100027500EE12604D8B00BD0000E226E000E36
:100B2000236E000E246E000E256E000E1B6E0FD07D
:100B300026C021F0FF0E2216FF0E23167F0E24166C
:100B4000000E251621B0248ED8902130256E1B5022
:100B5000251222C00FF023C010F024C011F025C0D0
:100B600012F012000450800B0D6E045004240F6E1E
:100B700003BE0F800F50D8B40DD00F28D8A408D0D2
:100B8000000E016E000E026E000E036E000E046E6B
:100B9000038E06D0000E016E000E026E000E036E74
:100BA000000E046E0850800B0E6E0D500E18D8A467
:100BB0000D8C085008240E6E07BE0E800E50D8B45F
:100BC0000DD00E28D8A408D0000E056E000E066EBB
:100BD000000E076E000E086E078E06D0000E056E22
:100BE000000E066E000E076E000E086E0F500E5CB3
:100BF000D8B022D00DAC02D0800E0D1A0FC010F06C
:100C00000EC00FF010C00EF001C010F005C001F0D2
:100C100010C005F002C010F006C002F010C006F0CF
:100C200003C010F007C003F010C007F004C010F0BC
:100C300008C004F010C008F0000E106E0F500EC077
:100C400009F00A6A095E000E0A5A0ABE2CD00A5040
:100C500004E11A0E095CD8A026D00150021003103E
:100C60000410D8B402D0010E01D0000E106E000E98
:100C7000016E000E026E000E036E000E046E0EC0BA
:100C80000FF015D010A005D0D89010300109106ECB
:100C900002D0D890103201B0108E043404320332E6
:100CA000023201320F2A0E500F5CD8A0EBD70DBCD8
:100CB00028D00F50D8A409D0000E016E000E026E8D
:100CC000000E036E000E046E120005500126065041
:100CD0000222075003220850042204A071D010A061
:100CE00005D0D89010300109106E02D0D890103283
:100CF00001B0108E043404320332023201320F2A62
:100D00005FD00550015C065002580750035804504C
:100D1000800A096E0850800A0958D8B025D00150C1
:100D2000055C096E025006580A6E035007580B6E98
:100D3000045008580C6EFF0E0924016EFF0E0A20A5
:100D4000026EFF0E0B20036EFF0E0C20046E800E51
:100D50000D1A106C1050D8A40FD0010E0126000EF1
:100D600002220322042208D00550015E0650025AD6
:100D70000750035A0850045A01500210031004107F
:100D8000D8A41CD01050D8A419D0000E016E000EAB
:100D9000026E000E036E000E046E1200D890013633
:100DA00002360336043610BE018010A002D0D8806F
:100DB00001D0D89010360F50D8A40F0603AEEED74E
:100DC000000E0E6E10AE0BD010C009F07F0E09168B
:100DD000D8B403D0010E0E6E02D001B0FBD70E5076
:100DE000D8B420D0010E0126000E022203220422D4
:100DF00004A018D001C009F002C00AF003C00BF033
:100E000004C00CF00C340C320B320A32093209C027
:100E100001F00AC002F00BC003F00CC004F00F2870
:100E2000D8A40F2A0F28D8B403D00F50D8A40DD0BF
:100E3000000E016E000E026E000E036E000E046EB8
:100E40000F50D8A402D0000E0D6E0FA002D0038E5A
:100E500001D0039ED8900F30046E0DBE048E01C0E9
:100E600001F002C002F003C003F004C004F012005D
:100E7000000E286ECC0E296E770E2A6E470E2B6E52
:100E8000B40E136EC80E146E960E156E400E166ECE
:100E900030C001F031C002F0000E02BEFF0E036E42
:100EA000046E010ECAEC08F001C00FF002C010F091
:100EB00003C011F004C012F009EC04F00FC02CF0D4
:100EC00010C02DF011C02EF012C02FF0DDEC0BF091
:100ED00028C037F029C038F02AC039F02BC03AF0CA
:100EE000000E286EF60E296E890E2A6E470E2B6EA6
:100EF00037C02CF038C02DF039C02EF03AC02FF09A
:100F0000DDEC0BF028C033F029C034F02AC035F0F6
:100F10002BC036F037C001F038C002F039C003F002
:100F20003AC004F05CEC0AF001C03FF002C040F0AF
:100F300033C001F034C002F035C003F036C004F015
:100F40005CEC0AF001C03DF002C03EF03FC001F091
:100F500040C002F0270E046E100E036EB4EC0BF0CE
:100F600001C04FF002C050F04FC001F050C002F07D
:100F7000D80E046EF00E036E79EC0CF03F50012495
:100F8000416E40500220426E41C001F042C002F06A
:100F9000030E046EE80E036E11EC0BF001C04DF071
:100FA00002C04EF04DC001F04EC002F0FC0E046EC7
:100FB000180E036E79EC0CF041500124456E42503E
:100FC0000220466E45C001F046C002F0000E046EDD
:100FD000640E036E11EC0BF001C04BF002C04CF03C
:100FE0004BC001F04CC002F0FF0E046E9C0E036E6D
:100FF00079EC0CF045500124436E46500220446EBB
:1010000043C001F044C002F0000E046E0A0E036EED
:1010100011EC0BF001C049F002C04AF049C001F0E8
:101020004AC002F0FF0E046EF60E036E79EC0CF06F
:1010300043500124476E44500220486E1200000EB7
:10104000B9EC0AF09690810ED56EA00EF26E000EED
:10105000956E84EC0BF09C0E326ED70EE82EFED708
:10106000322EFCD700F0CBEC0CF0010E9EEC0CF015
:10107000C7EC0CF0010E046E080E056E040E066E31
:1010800034EC0CF0000E046E020E8CEC0CF0060E2C
:10109000046E080E056E040E066E34EC0CF08D9096
:1010A0004DEC0CF001C03BF002C03CF03BC009F03D
:1010B0003CC00AF06AEC09F0050E046E010E8CECDF
:1010C0000CF04F50300F00EC0CF04D50300F00EC96
:1010D0000CF04B50300F00EC0CF04950300F00EC8E
:1010E0000CF04750300F00EC0CF03BC030F03CC02F
:1010F00031F038EC07F0000E046E020E8CEC0CF0B0
:101100000B0E046E080E056E020E066E34EC0CF02B
:10111000020E046E020E8CEC0CF04F50300F00ECFF
:101120000CF04D50300F00EC0CF04B50300F00EC39
:101130000CF04950300F00EC0CF04750300F00EC31
:101140000CF0080E046E020E8CEC0CF0E3EC09F0CF
:101150000E0E046E080E056E020E066E34EC0CF0D8
:101160000A0E046E020E8CEC0CF04F50300F00ECA7
:101170000CF04D50300F00EC0CF04B50300F00ECE9
:101180000CF04950300F00EC0CF04750300F00ECE1
:101190000CF086D7096E0950D8A404AE1AD001C04D
:1011A00005F002C006F003C007F004C008F0051EF9
:1011B000061E071E081E052A000E06220722082208
:1011C00005C00BF006C00CF007C00DF008C00EF013
:1011D00008D001C00BF002C00CF003C00DF004C039
:1011E0000EF00150021003100410D8A409D0000E14
:1011F000016E000E026E000E036E000E046E1200F1
:10120000960E0A6E06D00A2AD8900E320D320C3293
:101210000B32000E0B14056E000E0C14066E000E41
:101220000D14076EFE0E0E14086E05500610071002
:101230000810D8B40DD0E7D70A2A010E0B26000EED
:101240000C220D220E22D8900E320D320C320B32AF
:10125000000E0B14056E000E0C14066E000E0D141D
:10126000076EFF0E0E14086E0550061007100810CA
:10127000D8B407D0E1D70A06D8900B360C360D3615
:101280000E360DBE03D0020E0A60F5D70AA00D9EE1
:10129000D8900A320AC005F0066A076A086A05C0D3
:1012A00008F0076A066A056A05500B1206500C1210
:1012B00007500D1208500E120950D8A404AE01D0E8
:1012C0000E8E0BC001F00CC002F00DC003F00EC07A
:1012D00004F012003BC001F03CC002F0270E046E87
:1012E000100E036E11EC0BF001C04FF002C050F075
:1012F0004FC001F050C002F0D80E046EF00E036E25
:1013000079EC0CF03B500124416E3C500220426EBF
:1013100041C001F042C002F0030E046EE80E036EFD
:1013200011EC0BF001C04DF002C04EF04DC001F0C9
:101330004EC002F0FC0E046E180E036E79EC0CF039
:1013400041500124456E42500220466E45C001F0D6
:1013500046C002F0000E046E640E036E11EC0BF03A
:1013600001C04BF002C04CF04BC001F04CC002F089
:10137000FF0E046E9C0E036E79EC0CF045500124B8
:10138000436E46500220446E43C001F044C002F058
:10139000000E046E0A0E036E11EC0BF001C049F052
:1013A00002C04AF049C001F04AC002F0FF0E046ECC
:1013B000F60E036E79EC0CF043500124476E445056
:1013C0000220486E12003DC001F03EC002F0270E20
:1013D000046E100E036EB4EC0BF001C04FF002C0AF
:1013E00050F04FC001F050C002F0D80E046EF00E65
:1013F000036E79EC0CF03D500124416E3E5002200A
:10140000426E41C001F042C002F0030E046EE80ECD
:10141000036E11EC0BF001C04DF002C04EF04DC058
:1014200001F04EC002F0FC0E046E180E036E79EC53
:101430000CF041500124456E42500220466E45C0DA
:1014400001F046C002F0000E046E640E036E11EC53
:101450000BF001C04BF002C04CF04BC001F04CC08F
:1014600002F0FF0E046E9C0E036E79EC0CF04550FA
:101470000124436E46500220446E43C001F044C034
:1014800002F0000E046E0A0E036E11EC0BF001C0A8
:1014900049F002C04AF049C001F04AC002F0FF0E14
:1014A000046EF60E036E79EC0CF043500124476E87
:1014B00044500220486E1200033404340A6E0A506D
:1014C000D8A409D0000E016E000E026E000E036E4D
:1014D000000E046E120001C005F002C006F003C049
:1014E00007F004C008F0200E05D0D890083207326B
:1014F00006320532E82EF9D70550096E038EFF0E2D
:101500000116FF0E0216FF0E0316000E0416960EAD
:101510000A5E0AAE0DD00A50800A970FD8A0D2D723
:10152000D89004320332023201320A3EF9D70DD08C
:101530001F0E0A6407D0C6D7D8900136023603368C
:1015400004360A060A50D8A4F7D70950D8B408D0F0
:10155000041E031E021E016C000E0222032204223E
:1015600001C001F002C002F003C003F004C004F0A7
:101570001200036E926896680F0E936E1FD00E0EC7
:10158000C16E0344E846FC0BC26E47D00D0EF8D77F
:101590000C0EF6D70B0EF4D70A0EF2D7090EF0D7C1
:1015A000080EEED7070EECD7060EEAD7050EE8D7E1
:1015B000040EE6D7030EE4D7020EE2D70350016E05
:1015C000026A0250000AD8A428D00150000AD8B4F8
:1015D000D6D7010AD8B4DAD7030AD8B4D9D7010AC2
:1015E000D8B4D8D7070AD8B4D7D7010AD8B4D6D731
:1015F000030AD8B4D5D7010AD8B4D4D70F0AD8B4BF
:10160000D3D7010AD8B4D2D7030AD8B4D1D7010AA4
:10161000D8B4D0D7070AD8B4CFD7910EC06EC28045
:101620001200000E066E04AE06D0036C041ED8B085
:10163000042A010E066E02AE06D0016C021ED8B05E
:10164000022A010E061A000E086E000E076E0350E5
:101650000410D8B41CD0010E056E04D0D890033607
:101660000436052A04AEFAD7D89007360836035058
:10167000015C04500258D8A005D00350015E04500C
:10168000025A0780D89004320332052EEDD7065057
:10169000D8B404D0076C081ED8B0082A07C001F0DF
:1016A00008C002F01200F80E956E8C908C828C842B
:1016B000F00E00D0E82EFDD783CF01F08C94F00E11
:1016C00000D0E82EFDD78C84F00E00D0E82EFDD798
:1016D0008C940150800B016E12D08C84F00E00D0DF
:1016E000E82EFDD783CF01F08C94F00E00D0E82EC9
:1016F000FDD78C84F00E00D0E82EFDD7E9D7800E00
:101700000118D8A41200E9D78C908C92300EACEC62
:101710000CF0200E046E2A0EE82EFED7042EFCD705
:10172000200E046E2A0EE82EFED7042EFCD7300EB3
:10173000ACEC0CF0F00E00D0E82EFDD7300EACEC87
:101740000CF0200EACEC0CF0010E1AEC0CF0280E94
:101750001AEC0CF00F0E1AEC0CF0060E1AEC0CF052
:10176000010E1AEC0CF01200000E066E000E056E53
:1017700003500410D8B41CD0010E076E04D0D890CA
:1017800003360436072A04AEFAD7D8900536063653
:101790000350015C04500258D8A005D00350015EEC
:1017A0000450025A0580D89004320332072EEDD738
:1017B00005C001F006C002F01200000E2C1A000E47
:1017C0002D1A000E2E1A800E2F1A28C001F029C0E3
:1017D00002F02AC003F02BC004F02CC005F02DC08D
:1017E00006F02EC007F02FC008F0B2EC05F001C0E3
:1017F00028F002C029F003C02AF004C02BF0120028
:10180000026E8C8053EC0BF0000E956EF00E00D043
:10181000E82EFDD78C928C948C800250F00B036ED6
:101820000350ACEC0CF00238F00B036E0350ACEC40
:101830000CF01200026E8C9053EC0BF0000E956EC3
:10184000F00E00D0E82EFDD78C928C948C90025034
:10185000F00B036E0350ACEC0CF00238F00B036E8F
:101860000350ACEC0CF01200000E096E000E096E75
:101870000FD009500424076E000E0520086E07C023
:10188000F6FF08C0F7FF0800F55000EC0CF0092A3D
:101890000650095CD8B01200ECD7C282C2B2FED7A3
:1018A000C4CF03F0030E03160350046E056A045000
:1018B000056E046AC3500426000E052204C001F020
:1018C00005C002F01200060084A00AD08D903E50A0
:1018D000526E3DC051F052C0D7FF51C0D6FF06D066
:1018E0008D804050526E3FC051F0F5D7F294539224
:1018F000110001500302F3CF05F0F4CF06F00150C0
:101900000402F350062602500302F350062605C0D7
:1019100001F006C002F01200056E0504D8A405D03F
:101920000450800F1AEC0CF01200020E0518D8A417
:1019300012000450C00F1AEC0CF01200046E045098
:10194000D8A403D00E0E1AEC0CF00404D8A4120094
:101950000C0E1AEC0CF01200016E0F0E8C16F00E2D
:10196000011601508C128C84F00E00D0E82EFDD7A9
:101970008C94120000EE33F0200EEE6AE806FDE1D2
:1019800053905392000EF86E00011FEF08F0020E04
:0E1990001AEC0CF01200010E1AEC0CF0120012
:020000040020DA
:08000000FFFFFFFFFFFFFFFF00
:020000040030CA
:0E0000000002181EFF8181FF0FC00FE00F40AD
:00000001FF
