:020000040000FA
:0400000010EF00F00D
:020004000000FA
:10002000956A936A958E938E000EF86E020EF76EA7
:10003000000EF66E010E246E050E236E7FEC00F0AE
:1000400071EF00F08CEC00F07FEC00F083BE4EEF1F
:1000500000F02BEF00F0010E246231EF00F03FEFD3
:1000600000F0000E236237EF00F03AEF00F02306B5
:1000700078EF00F0090E236E240678EF00F0050EED
:10008000236245EF00F048EF00F0230678EF00F020
:10009000060E246E040E236E78EF00F0060E246226
:1000A00054EF00F062EF00F0090E23625AEF00F007
:1000B0005DEF00F0232A78EF00F0000E236E242A73
:1000C00078EF00F0040E236268EF00F06BEF00F0B1
:1000D000232A78EF00F0010E246E050E236E78EFD0
:1000E00000F081AE71EF00F094EC00F022EF00F030
:1000F00081BE78EF00F094EC00F071EF00F0F66A4A
:100100002350F6260800F5CF8CFFF66A2450F62619
:100110000800F5CF8AFF12001E0E206E94EC00F04E
:10012000202E8EEF00F012001E0E216E9CEC00F0CF
:10013000212E96EF00F012000A0E226E0000222EF1
:060140009EEF00F012002A
:100200003F065B4F666D7D077F67797979797979EC
:020000040030CA
:0100010000FE
:0100020018E5
:010003001EDE
:010005008179
:010006008178
:00000001FF
