:020000040000FA
:0400000073EF3FF06B
:107EE600000176EF3FF0FC0E956E000E0D6E000E53
:107EF6000C6E8C808C92000E056E000E046E06D001
:107F0600030EE82EFED700F0044A052A0C50045C46
:107F16000550800A016E0D50800A0158D8A0F0D78E
:107F26008C908C82000E076E000E066E06D0030E35
:107F3600E82EFED700F0064A072AFF0E016E000E55
:107F4600026E0C50015E0D50025A0150065C07503D
:107F5600800A036E0250800A0358D8A0E8D70C4A5C
:107F66000D2A0DBEC6D70D5003E10C28D8A0C1D7E7
:107F7600000E0F6E000E0E6E8C908C82000E096E37
:107F8600000E086E06D0030EE82EFED700F0084A53
:107F9600092A0E50085C0950800A016E0F50800AAB
:107FA6000158D8A0F0D78C808C92000E0B6E000E74
:107FB6000A6E06D0030EE82EFED700F00A4A0B2AF8
:107FC600FF0E016E000E026E0E50015E0F50025A39
:107FD60001500A5C0B50800A036E0250800A035857
:107FE600D8A0E8D70E4A0F2A0FBEC6D70F5004E115
:0A7FF6000E28D8B07AD7C0D778D78C
:020000040020DA
:08000000FFFFFFFFFFFFFFFF00
:020000040030CA
:0E0000000000181EFF8181FF0FC00FE00F40AF
:00000001FF
