:020000040000FA
:0400000010EF00F00D
:020004000000FA
:040008001DEF00F0F8
:10002000070EF76E8C6A800E956E8A6AF00E936EDC
:10003000F19EF286F28E1BEF00F081A82AEF00F00D
:1000400081AA37EF00F081AC44EF00F081AE51EFB0
:1000500000F010000F0E936E8A6A81A0010E81A23B
:10006000040E81A4070E81A60E0E5EEF00F00F0EA7
:10007000936E8A6A81A0020E81A2050E81A4080EE9
:1000800081A6000E5EEF00F00F0E936E8A6A81A0CB
:10009000030E81A2060E81A4090E81A60F0E5EEF4B
:1000A00000F00F0E936E8A6A81A00A0E81A20B0ED9
:1000B00081A40C0E81A60D0E5EEF00F0F66E080016
:1000C000F5CF8CFFF00E936E68EC00F0F29010000C
:1000D000640E206EC80E216E212E6CEF00F0202ED3
:0600E0006AEF00F01200BF
:10070000BF86DBCFE6EDFC87FFE7777CB95E1B4950
:020000040030CA
:0100010000FE
:0100020018E5
:010003001EDE
:010005008179
:010006008178
:00000001FF
