:020000040000FA
:0400000007EF00F016
:10000800538254ED08F090EF0BF0000E956E969029
:10001800040E0001866F0C0E856F330EE82EFED796
:10002800852FFCD7862FFAD700D03CEC0BF091EC4B
:100038000CF0010E57EC0CF0010E0D6E370E0C6E25
:1000480073EC0CF0B8EC09F08D904EEC06F093D1FF
:10005800B60E0D6E7E0E0E6E200E0F6E00EC0CF0BE
:10006800910E0D6E7E0E0E6E240E0F6E00EC0CF0CF
:100078000D0E81EC0CF051C00CF052C00DF0000ECA
:100088000F6E0A0E0E6E5AEC0AF00C50300F81EC0F
:100098000CF051C00CF052C00DF0000E0F6E0A0E9D
:1000A8000E6E9CEC0AF00C50300F81EC0CF02E0E0A
:1000B80081EC0CF04F50300F81EC0CF0600E81ECAD
:1000C8000CF0430E81EC0CF0000E0001A06F000E46
:1000D8009F6FBBD7F60E0D6E7E0E0E6E1C0E0F6E4A
:1000E80000EC0CF0910E0D6E7E0E0E6E240E0F6E4F
:1000F80000EC0CF00D0E81EC0CF04DC00CF04EC075
:100108000DF0000E0F6E0A0E0E6E5AEC0AF00C502F
:10011800300F81EC0CF04DC00CF04EC00DF0000E0D
:100128000F6E0A0E0E6E9CEC0AF00C50300F81EC2C
:100138000CF02E0E81EC0CF04B50300F81EC0CF0D3
:10014800250E81EC0CF0C0D7000E926F000E916F57
:10015800660E1E6E660E1F6EE60E206E3E0E216E39
:100168004FC00CF050C00DF0000E0DBEFF0E0E6E0D
:100178000F6E010EB4EC07F00CC01AF00DC01BF0A6
:100188000EC01CF00FC01DF0D9EC01F01AC043F0EE
:100198001BC044F01CC045F01DC046F0000E1E6E8A
:1001A800000E1F6E900E206E400E216E51C00CF096
:1001B80052C00DF0000E0DBEFF0E0E6E0F6E010E3A
:1001C800B4EC07F00CC01AF00DC01BF00EC01CF008
:1001D8000FC01DF0D9EC01F01AC03FF01BC040F071
:1001E8001CC041F01DC042F082EC03F03FC089F012
:1001F80040C08AF041C08BF042C08CF0000E000174
:10020800756F000E766F340E776F430E786F89C066
:1002180079F08AC07AF08BC07BF08CC07CF06CECF3
:100228000BF075C07DF076C07EF077C07FF078C0A7
:1002380080F0E8EC08F00001914B922B92BF88D730
:10024800925105E10F0E915DD8B0FFD681D7FDD64A
:10025800000E946F000E936F000E756F000E766F90
:10026800340E776F430E786F000E1E6E000E1F6EF1
:10027800900E206E400E216EC40E856FFF0E866FA5
:100288004DC087F04EC088F0855187278651882356
:1002980087C00CF088C00DF0000E0DBEFF0E0E6E6C
:1002A8000F6E010EB4EC07F00CC01AF00DC01BF075
:1002B8000EC01CF00FC01DF0D9EC01F01AC079F087
:1002C8001BC07AF01CC07BF01DC07CF06CEC0BF0FE
:1002D80075C08DF076C08EF077C08FF078C090F042
:1002E8008DC07DF08EC07EF08FC07FF090C080F012
:1002F800E8EC08F00001934B942B94BFADD79451D0
:1003080005E10F0E935DD8B0A0D6A6D79ED6000EF5
:10031800966F000E956F000E7D6F000E7E6F340E87
:100328007F6F430E806FE8EC08F00001954B962B29
:1003380096BFF1D7965104E10F0E955DD8A0EBD783
:10034800000E986F000E976F000E7D6F000E7E6F87
:10035800000E7F6F000E806FE8EC08F00001974BED
:10036800982B98BFF1D7985105E10F0E975DD8B03B
:100378006CD6EAD76AD69FC085F0A0C086F0000187
:100388008651000AD8A461D68551010AD8B460D62E
:10039800030AD8B49FD6010AD8B4D6D6070AD8B467
:1003A80057D7010AD8B4B3D750D61D50800B266E44
:1003B8001D501D242C6E1CBE2C802C50D8B40DD082
:1003C8002C28D8A408D0000E1A6E000E1B6E000E42
:1003D8001C6E000E1D6E1C8E08D0000E1A6E000ECC
:1003E8001B6E000E1C6E000E1D6E2150800B261A0F
:1003F800215021242B6E20BE2B802B50D8B40DD039
:100408002B28D8A408D0000E1E6E000E1F6E000EFA
:10041800206E000E216E208E08D0000E1E6E000E7B
:100428001F6E000E206E000E216E2B50D8B403D024
:100438002C50D8A409D0000E1A6E000E1B6E000EA8
:100448001C6E000E1D6E120020501A02F3CF31F000
:10045800F4CF32F03150276E286A296A2A6A32505E
:100468002D6E2E6A2F6A306A1F501B02F3CF31F0AF
:10047800F4CF32F031502726000E282229222A22D2
:1004880032502D26000E2E222F2230221E501C0202
:10049800F3CF31F0F4CF32F031502726000E282266
:1004A80029222A2232502D26000E2E222F223022D7
:1004B80029C02AF028C029F027C028F0276A1E5032
:1004C8001B02F3CF31F0F4CF32F0315027263250EF
:1004D8002822000E2922000E2A221F501A02F3CFCA
:1004E80031F0F4CF32F03150272632502822000E56
:1004F8002922000E2A2229C02AF028C029F027C064
:1005080028F0276A1E501A02F3CF31F0F4CF32F0E8
:100518003150272632502822000E2922000E2A2286
:1005280020501B02F3CF31F0F4CF32F031502D269A
:1005380032502E22000E2F22000E30221F501C0295
:10054800F3CF31F0F4CF32F031502D2632502E2235
:10055800000E2F22000E302220501C02F3CF31F063
:10056800F4CF32F03150226E3250236E246A256A5D
:1005780024C025F023C024F022C023F0226A225090
:100588002D2623502E2224502F222550302227C0DA
:1005980022F028C023F029C024F02AC025F0190E23
:1005A80005D0D8902532243223322232E82EF9D7CA
:1005B80022502D2623502E2224502F22255030221F
:1005C80029C02AF028C029F027C028F0276A2B5014
:1005D8002CC022F0236A2226000E2322820E222417
:1005E800316EFF0E2320326E0FD0D8902D362E3666
:1005F8002F3630362ABE2D80D89027362836293611
:100608002A363106D8A032062FAEEFD7000E2B6E51
:100618002AAE17D0FF0E2714226EFF0E2814236E61
:10062800FF0E2914246E7F0E2A14256E22502310E3
:1006380024102510D8B403D0010E2B6E02D02DB093
:10064800FBD72B50D8B41FD0010E2D26000E2E221A
:100658002F22302230A017D02DC022F02EC023F038
:100668002FC024F030C025F025342532243223321F
:10067800223222C02DF023C02EF024C02FF025C036
:1006880030F0314A322A32BE0DD0325003E13128DF
:10069800D8A008D0000E2D6E000E2E6E800E2F6E84
:1006A8007F0E20D032BE05D032500EE13104D8B0D2
:1006B8000BD0000E2D6E000E2E6E000E2F6E000E4B
:1006C800306E000E266E0FD031C02CF0FF0E2D16A6
:1006D800FF0E2E167F0E2F16000E30162CB02F8E02
:1006E800D8902C30306E265030122DC01AF02EC003
:1006F8001BF02FC01CF030C01DF012004250800BC0
:100708000001716F42504224736F41BE738173516F
:10071800D8B40DD07329D8A408D0000E3F6E000EAF
:10072800406E000E416E000E426E418E06D0000EE5
:100738003F6E000E406E000E416E000E426E465037
:10074800800B726F71517219D8A4718D465046246E
:10075800726F45BE72817251D8B40DD07229D8A477
:1007680008D0000E436E000E446E000E456E000E5B
:10077800466E458E06D0000E436E000E446E000E87
:10078800456E000E466E7351725DD8B022D071ADC1
:1007980002D0800E711B73C074F072C073F074C005
:1007A80072F03FC074F043C03FF074C043F040C0E3
:1007B80074F044C040F074C044F041C074F045C0C7
:1007C80041F074C045F042C074F046C042F074C0B5
:1007D80046F0000E746F735172C06DF06E6B6D5FF2
:1007E800000E6E5B6EBF2CD06E5104E11A0E6D5D6B
:1007F800D8A026D03F50401041104210D8B402D0A3
:10080800010E01D0000E746F000E3F6E000E406E98
:10081800000E416E000E426E72C073F015D074A1C6
:1008280005D0D89074310109746F02D0D890743310
:100838003FB0748F42344232413240323F32732BE0
:100848007251735DD8A0EBD771BD28D07351D8A46D
:1008580009D0000E3F6E000E406E000E416E000E75
:10086800426E120043503F264450402245504122D8
:100878004650422242A071D074A105D0D89074315C
:100888000109746F02D0D89074333FB0748F42342A
:100898004232413240323F32732B5FD043503F5C8B
:1008A80044504058455041584250800A6D6F465058
:1008B800800A6D59D8B025D03F50435C6D6F4050C9
:1008C80044586E6F415045586F6F42504658706F8C
:1008D800FF0E6D253F6EFF0E6E21406EFF0E6F21DD
:1008E800416EFF0E7021426E800E711B746D745143
:1008F800D8A40FD0010E3F26000E402241224222EA
:1009080008D043503F5E4450405A4550415A4650E3
:10091800425A3F50401041104210D8A41CD0745184
:10092800D8A419D0000E3F6E000E406E000E416E26
:10093800000E426E1200D8903F364036413642369D
:1009480074BF3F8074A102D0D88001D0D89074378A
:100958007351D8A4730741AEEED7000E726F74AF0F
:100968000BD074C06DF07F0E6D17D8B403D0010E94
:10097800726F02D03FB0FBD77251D8B420D0010EAD
:100988003F26000E40224122422242A018D03FC0FA
:100998006DF040C06EF041C06FF042C070F070352D
:1009A80070336F336E336D336DC03FF06EC040F0FF
:1009B8006FC041F070C042F07329D8A4732B73291B
:1009C800D8B403D07351D8A40DD0000E3F6E000EDA
:1009D800406E000E416E000E426E7351D8A402D0D4
:1009E800000E716F73A102D0418E01D0419ED89044
:1009F8007331426E71BF428E3FC03FF040C040F03D
:100A080041C041F042C042F012003650800B000154
:100A1800646F365036246B6F35BE6B816B51D8B41A
:100A28000DD06B29D8A408D0000E336E000E346E9A
:100A3800000E356E000E366E358E06D0000E336E03
:100A4800000E346E000E356E000E366E3A50800B76
:100A5800641B3A503A246C6F39BE6C816C51D8B41F
:100A68000DD06C29D8A408D0000E376E000E386E51
:100A7800000E396E000E3A6E398E06D0000E376EB3
:100A8800000E386E000E396E000E3A6E3750381070
:100A980039103A10D8A417D0000E336E000E346EF9
:100AA800000E356E000E366E800E35127F0E361231
:100AB8006451361233C033F034C034F035C035F0E9
:100AC80036C036F012006B51D8A409D0000E336E30
:100AD800000E346E000E356E000E366E12006C512C
:100AE8006BC03BF03C6A3B5E000E3C5A7F0E3B24D9
:100AF800656F000E3C20666F33C060F034C061F053
:100B080035C062F036C063F0000E336E000E346EEE
:100B1800000E356E000E366E000E676F000E686FA1
:100B2800000E696F000E6A6F000E6C6F28D06C5152
:100B3800D8B411D0D8906037613762376337D8900E
:100B480033363436353636366ABF3380D890673711
:100B5800683769376A373750605D3850615939509E
:100B680062593A506359D8A009D06A8D3750605FEE
:100B78003850615B3950625B3A50635B6C2B190EDD
:100B88006C65D5D76051611162116311D8B411D069
:100B980067810FD0D89033363436353636366ABF4B
:100BA8003380D8906737683769376A376507D8A0C0
:100BB800660735AEEFD7000E6C6F6AAF17D0FF0E21
:100BC80067153B6EFF0E68153C6EFF0E69153D6E8E
:100BD8007F0E6A153E6E3B503C103D103E10D8B457
:100BE80003D0010E6C6F02D033B0FBD76C51D8B470
:100BF8001FD0010E3326000E34223522362236A0AD
:100C080017D033C03BF034C03CF035C03DF036C09F
:100C18003EF03E343E323D323C323B323BC033F054
:100C28003CC034F03DC035F03EC036F0654B662B15
:100C380066BF10D0665103E16529D8A00BD0000E1D
:100C4800666F6569000E336E000E346E000E356EE9
:100C5800000E366E66BF05D0665111E16505D8B045
:100C68000ED0000E666F000E656F000E336E000E1C
:100C7800346E000E356E000E366E000E646F65C061
:100C88006BF06BA102D0358E01D0359ED8906B31B8
:100C9800366E0ED732EC0CF0D4EC0AF00CC049F0EA
:100CA8000DC04AF049504A10D8B412004D0E0C6ECF
:100CB800000E0D6E4B0E0E6E000E0F6E510E106E66
:100CC800000E116E4F0E126E000E136E09EC07F037
:100CD8000CC09DF00DC09EF08DEC0CF0EB0E0F6E6D
:100CE8007F0E106E090E116EE7EC0BF0000E0F6E02
:100CF800020E45EC0CF0F50E0F6E7F0E106E090E0D
:100D0800116EE7EC0BF000019D519E11D8B45AD03A
:100D1800090E0F6E010E45EC0CF051C00CF052C0DC
:100D28000DF0000E0F6E0A0E0E6E5AEC0AF00C5003
:100D3800300FB3EC0BF051C00CF052C00DF0000EA8
:100D48000F6E0A0E0E6E9CEC0AF00C50300FB3ECCE
:100D58000BF02E0EB3EC0BF04F50300FB3EC0BF042
:100D6800DF0EB3EC0BF0430EB3EC0BF0090E0F6E75
:100D7800020E45EC0CF04DC00CF04EC00DF0000E0C
:100D88000F6E0A0E0E6E5AEC0AF00C50300FB3ECD0
:100D98000BF04DC00CF04EC00DF0000E0F6E0A0E99
:100DA8000E6E9CEC0AF00C50300FB3EC0BF02E0ECC
:100DB800B3EC0BF04B50300FB3EC0BF0250EB3EC4B
:100DC8000BF012008DEC0CF0C90E0F6E7F0E106E3A
:100DD800100E116EE7EC0BF0000E0F6E020E45ECD4
:100DE8000CF0DA0E0F6E7F0E106E100E116EE7EC1F
:100DF8000BF0B70E266EA10E256EC40EE82EFED798
:100E0800252EFCD7262EFAD71200000E226E000ED1
:100E1800216E000E246E000E236E000E1E6E000E54
:100E28001D6E000E206E000E1F6E0DD01F4A202A68
:100E3800F40E1F1808E12004D8A405D0000E0D6E8A
:100E4800000E0C6E120081A0F1D7780EE82EFED7A6
:100E580081A00CD0010E23C014F024C015F0D89046
:100E6800143615361410236E155004D0D890233438
:100E7800236E2434246E000E206E000E1F6E08D0E0
:100E88001F4A202AF40E1F1803E12004D8B4D6D72D
:100E980081B0F6D71D4A1E2A1EBEC3D71E5004E1D4
:100EA800080E1D5CD8A0BDD7180E2124D96E000EDF
:100EB8002220DA6E23C0DFFF214A222A22BEA9D7C8
:100EC800225004E1050E215CD8A0A3D71C50146E53
:100ED800156A195018C016F0176A1626000E172240
:100EE8001A501626000E17221B501626000E17221F
:100EF80014501618A3E115501718D8A49FD71850E6
:100F0800146E156A0CC0D9FF0DC0DAFF14C0DEFFDD
:100F180015C0DDFF1950146E156A0EC0D9FF0FC039
:100F2800DAFF14C0DEFF15C0DDFF1A50146E156A13
:100F380010C0D9FF11C0DAFF14C0DEFF15C0DDFFF5
:100F48001B50146E156A12C0D9FF13C0DAFF14C003
:100F5800DEFF15C0DDFF000E0D6E010E0C6E1200D7
:100F6800146E1450D8A40FAE1AD00CC010F00DC0D7
:100F780011F00EC012F00FC013F0101E111E121E39
:100F8800131E102A000E11221222132210C016F06E
:100F980011C017F012C018F013C019F008D00CC017
:100FA80016F00DC017F00EC018F00FC019F00C5055
:100FB8000D100E100F10D8A409D0000E0C6E000EE4
:100FC8000D6E000E0E6E000E0F6E1200960E156E50
:100FD80006D0152AD8901932183217321632000E58
:100FE8001614106E000E1714116E000E1814126EDF
:100FF800FE0E1914136E1050111012101310D8B4DD
:101008000DD0E7D7152A010E1626000E1722182232
:101018001922D8901932183217321632000E1614C7
:10102800106E000E1714116E000E1814126EFF0EBB
:101038001914136E1050111012101310D8B407D0D1
:10104800E1D71506D890163617361836193618BE51
:1010580003D0020E1560F5D715A0189ED89015324A
:1010680015C010F0116A126A136A10C013F0126AE0
:10107800116A106A105016121150171212501812D5
:10108800135019121450D8A40FAE01D0198E16C0DF
:101098000CF017C00DF018C00EF019C00FF01200B8
:1010A8000600F6CF08F0F7CF09F0F8CF0AF0F5CF31
:1010B8000BF0610EAE18D8B404D0410EAE18D8A407
:1010C80005D0000E0001A06F010E0CD0620EAE1804
:1010D800D8B404D0420EAE18D8A405D0000E000132
:1010E800A06F020E9F6F630EAE18D8B404D0430EE3
:1010F800AE18D8A415D0D70E026E7E0E036E1E0E43
:10110800046E19EC0CF0910E026E7E0E036E240E26
:10111800046E19EC0CF0000E0001A06F030E44D011
:10112800640EAE18D8B404D0440EAE18D8A415D0A6
:10113800130E026E7F0E036E1A0E046E19EC0CF07D
:10114800910E026E7E0E036E240E046E19EC0CF0E6
:10115800000E0001A06F040E27D0650EAE18D8B49B
:1011680004D0450EAE18D8A415D0470E026E7F0ED7
:10117800036E170E046E19EC0CF0910E026E7E0EC3
:10118800036E240E046E19EC0CF0000E0001A06F23
:10119800050E0AD00D0EAE18D8A408D009EC0AF036
:1011A800000E0001A06F000E9F6F03D0070E87ECA2
:1011B8000CF09E9A0BC0F5FF0AC0F8FF09C0F7FFB4
:1011C80008C0F6FF53921100000E436E000E446EE5
:1011D800480E456E420E466E000E376E000E386E93
:1011E800340E396E430E3A6E000E1E6E000E1F6EE0
:1011F800480E206E430E216E7DC01AF07EC01BF093
:101208007FC01CF080C01DF0D9EC01F01AC033F08B
:101218001BC034F01CC035F01DC036F009EC05F0D9
:1012280033C03FF034C040F035C041F036C042F022
:1012380082EC03F03FC075F040C076F041C077F013
:1012480042C078F05AEC09F075C09BF076C09CF06B
:1012580000019B51D008996F9C51D8A0E82A070833
:101268009A6F8D80000E826F000E816F06D0280E57
:10127800E82EFED70001814B822B9B51815D9C514A
:101288008259D8A0F4D78D90000E846F000E836F1A
:1012980006D0280EE82EFED70001834B842B9951E7
:1012A800835D9A518459D8B01200F3D7000177357D
:1012B8007835486E4850D8A409D0000E756F000ED6
:1012C800766F000E776F000E786F120075C079F098
:1012D80076C07AF077C07BF078C07CF0200E05D01D
:1012E800D8907C337B337A337933E82EF9D7795128
:1012F800476E778FFF0E7517FF0E7617FF0E77175D
:10130800000E7817960E485E48AE0DD04850800AF9
:10131800970FD8A0D2D7D8907833773376337533F0
:10132800483EF9D70DD01F0E486407D0C6D7D890CD
:10133800753776377737783748064850D8A4F7D7BF
:101348004750D8B408D0781F771F761F756D000EE8
:1013580076237723782375C075F076C076F077C04A
:1013680077F078C078F012009F0E0D6E7F0E0E6E2B
:10137800140E0F6E00EC0CF0750E0D6E7F0E0E6ED7
:10138800140E0F6E00EC0CF05F0E0D6E7F0E0E6EDD
:10139800150E0F6E00EC0CF08A0E0D6E7F0E0E6EA1
:1013A800140E0F6E00EC0CF0E90E0D6E7D0E0E6E35
:1013B8002C0E0F6E00EC0CF0410E0D6E7E0E0E6EB4
:1013C800280E0F6E00EC0CF0160E0D6E7E0E0E6ED3
:1013D8002A0E0F6E00EC0CF06A0E0D6E7E0E0E6E6D
:1013E800260E0F6E00EC0CF02E0E0D6E7F0E0E6E9C
:1013F800180E0F6E00EC0CF0B40E0D6E7F0E0E6E14
:10140800140E0F6E00EC0CF012009F0E026E7F0E91
:10141800036E140E046E19EC0CF0750E026E7F0E3E
:10142800036E140E046E19EC0CF05F0E026E7F0E44
:10143800036E150E046E19EC0CF08A0E026E7F0E08
:10144800036E140E046E19EC0CF0E90E026E7D0E9C
:10145800036E2C0E046E19EC0CF0410E026E7E0E1B
:10146800036E280E046E19EC0CF0160E026E7E0E3A
:10147800036E2A0E046E19EC0CF06A0E026E7E0ED4
:10148800036E260E046E19EC0CF02E0E026E7F0E03
:10149800036E180E046E19EC0CF0B40E026E7F0E7B
:1014A800036E140E046E19EC0CF01200000E116E8F
:1014B8000FAE06D00E6C0F1ED8B00F2A010E116E9B
:1014C8000DAE06D00C6C0D1ED8B00D2A010E111AE7
:1014D800000E136E000E126E0E500F10D8B41CD0F2
:1014E800010E106E04D0D8900E360F36102A0FAEAB
:1014F800FAD7D890123613360E500C5C0F500D5890
:10150800D8A005D00E500C5E0F500D5A1280D890FE
:101518000F320E32102EEDD71150D8B404D0126C01
:10152800131ED8B0132A12C00CF013C00DF012000D
:10153800000E116E0DAE06D00C6C0D1ED8B00D2A23
:10154800010E116E0FAE04D00E6C0F1ED8B00F2A0C
:101558000E500F10D8B418D0010E106E04D0D890C9
:101568000E360F36102A0FAEFAD70E500C5C0F50FD
:101578000D58D8A004D00E500C5E0F500D5AD890BC
:101588000F320E32102EF1D71150D8B404D00C6C93
:101598000D1ED8B00D2A0CC00CF00DC00DF01200B5
:1015A800000E0F6E000E0E6E0DD00E4A0F2AF40EAE
:1015B8000E1808E10F04D8A405D0000E0D6E000E19
:1015C8000C6E120081B0F1D7000E0F6E000E0E6E79
:1015D80008D00E4A0F2AF40E0E1803E10F04D8B4EF
:1015E800ECD781A0F6D7000E0F6E000E0E6E08D055
:1015F8000E4A0F2AF40E0E1803E10F04D8B4DDD7F3
:1016080081B0F6D7000E0D6E010E0C6E1200F80EAA
:10161800956E8C908C828C84F00E00D0E82EFDD7CD
:1016280083CF0CF08C94F00E00D0E82EFDD78C847C
:10163800F00E00D0E82EFDD78C940C50800B0C6E69
:1016480012D08C84F00E00D0E82EFDD783CF0CF09A
:101658008C94F00E00D0E82EFDD78C84F00E00D0CC
:10166800E82EFDD7E9D7800E0C18D8A41200E9D7C8
:101678008C908C92300E65EC0CF0200E0F6E2A0EBA
:10168800E82EFED70F2EFCD7200E0F6E2A0EE82E5E
:10169800FED70F2EFCD7300E65EC0CF0F00E00D004
:1016A800E82EFDD7300E65EC0CF0200E65EC0CF042
:1016B800010ECDEC0BF0280ECDEC0BF00F0ECDEC9F
:1016C8000BF0060ECDEC0BF0010ECDEC0BF012007A
:1016D800000E0001791B000E7A1B000E7B1B800E8A
:1016E8007C1B75C03FF076C040F077C041F078C0F1
:1016F80042F079C043F07AC044F07BC045F07CC02A
:1017080046F082EC03F03FC075F040C076F041C06F
:1017180077F042C078F012002A0EF66E190EF76EB6
:10172800000EF86E00EEA1F010EE06F00900F5CFFD
:10173800EEFFE550E150FAE100EE99F0080EEE6A8E
:10174800E806FDE100EE49F00A0EEE6AE806FDE162
:1017580053905392000EF86E000109EF00F00D6EE1
:101768008C800BEC0BF0000E956EF00E00D0E82E7E
:10177800FDD78C928C948C800D50F00B0E6E0E5011
:1017880065EC0CF00D38F00B0E6E0E5065EC0CF09D
:1017980012000D6E8C900BEC0BF0000E956EF00E97
:1017A80000D0E82EFDD78C928C948C900D50F00BC5
:1017B8000E6E0E5065EC0CF00D38F00B0E6E0E50E0
:1017C80065EC0CF01200000E146E000E146E0FD0B3
:1017D80014500F24126E000E1020136E12C0F6FF64
:1017E80013C0F7FF0800F550B3EC0BF0142A1150A2
:1017F800145CD8B01200ECD7000E126E000E126EF8
:101808000FD012500D24106E000E0E20116E10C055
:10181800F6FF11C0F7FF0800F55081EC0CF0122A12
:101828000F50125CD8B01200ECD7000E076E000EF5
:10183800076E0FD007500224056E000E0320066EB7
:1018480005C0F6FF06C0F7FF0800F55087EC0CF05E
:10185800072A0450075CD8B01200ECD793908A90FE
:10186800020E0D6E190E0C6E820EE82EFED70C2E8F
:10187800FCD70D2EFAD78A80500EE82EFED793801B
:101888001200106E1004D8A405D00F50800FCDECB4
:101898000BF01200020E1018D8A412000F50C00F3F
:1018A800CDEC0BF012000F6E0F50D8A403D00E0E23
:1018B800CDEC0BF00F04D8A412000C0ECDEC0BF0FD
:1018C80012000C6E0F0E8C16F00E0C160C508C12AB
:1018D8008C84F00E00D0E82EFDD78C9412000CC03A
:1018E800AFFF0D50B06EAC98AC94B886AB8EAC8A96
:1018F800AB889D8AF28CF28E12000C6E0CC0ADFF84
:10190800ACB21200FDD7016E01C0ADFFACB212003F
:10191800FDD7020ECDEC0BF01200010ECDEC0BF052
:081928001200FA003200D007A2
:107DE800000D284129202D2056697375616C697A28
:107DF800617220656E20636F6E736F6C61206C61B9
:107E08002074656D70657261747572610A000D2861
:107E18004329202D2056697375616C697A61722037
:107E2800656E20736572766F206C612074656D7065
:107E3800657261747572610A000D284229202D202F
:107E480056697375616C697A617220656E20636F1B
:107E58006E736F6C61206C612068756D6564616418
:107E68000A000D284429202D2056697375616C6914
:107E78007A617220656E20736572766F206C61205E
:107E880068756D656461640A000D506172612076E1
:107E9800657220656C206D656E75207072657369FA
:107EA8006F6E652028454E544552290A0D000C4531
:107EB8004C4947494F2054454D504552415455521D
:107EC8004120454E20434F4E534F4C413A0A000C37
:107ED800454C4947494F2054454D5045524154550A
:107EE800524120454E20534552564F3A0A000C4500
:107EF8004C4947494F2048554D4544414420454E3B
:107F080020434F4E534F4C413A0A000C454C4947C9
:107F1800494F2048554D4544414420454E2053453E
:107F280052564F3A0A000D284529202D20456C202D
:107F3800736572766F20617274697374610A000CDC
:107F4800454C4947494F20534552564F20415254BA
:107F5800495354413A0A000D4C612066696E616CC0
:107F68002064652066696E616C65730A000D42695C
:107F7800656E76656E69646F7320616C204C42345F
:107F88000A000D4F7063696F6E65732064656C201D
:107F98006D656E753A0A000C4D6963726F636F6E9A
:107FA80074726F6C61646F7265730A000D496E6755
:107FB8007265736520756E61206F7063696F6E3AC4
:107FC80000202020204552524F5220444520202096
:107FD800200020202020434845434B53554D202066
:107FE80020200054454D504552413A200048554DF7
:087FF800454441443A20000019
:020000040020DA
:08000000FFFFFFFFFFFFFFFF00
:020000040030CA
:0E0000000002181EFF8181FF0FC00FE00F40AD
:00000001FF
