:020000040000FA
:040000002FEF00F0EE
:060008001B82B6ED06F0BC
:100018001B80D8CF02F0E8CF03F0E0CF04F0F090D7
:10002800172A1704D8B404D0020E1718D8A40BD076
:10003800CDB003D0016A012A01D0016ACD50011860
:10004800FE0B0118CD6E04C0E0FF03C0E8FF02C03C
:0A005800D8FF1B9010008AEF07F09C
:10080000003030312043616D70616E6164612000A1
:100810003030302043616D70616E616461730054EB
:07082000494D45523A00006A
:10082800000E956E9390040E126E0C0E116E340E1F
:10083800E82EFED7112EFCD7122EFAD786EC06F03A
:10084800B5EC07F0000E086E010E78EC07F0010E0B
:1008580099EC07F01F0E086E080E096E060E0A6E58
:100868005FEC07F0010E086E020E78EC07F0100E30
:10087800086E080E096E0E0E0A6E5FEC07F0CF6860
:10088800CE68EA0ECD6E0B0EBD6E000EBF6E290E41
:10089800BE6E9D849F84F18AF086F09CD08EF28E85
:1008A800F28CF28C070E086E010E78EC07F01AC075
:1008B80005F0066A000E086E0A0E076EDBEC05F0FE
:1008C8000550300F2BEC07F01AC005F0066A000E31
:1008D800086E0A0E076E1DEC06F00550300F2BEC63
:1008E80007F03A0E2BEC07F019C005F0066A000E67
:1008F800086E0A0E076EDBEC05F00550300F2BEC86
:1009080007F019C005F0066A000E086E0A0E076E99
:100918001DEC06F00550300F2BEC07F03A0E2BECCF
:1009280007F015C00AF016C00BF0000E0D6E640E2D
:100938000C6EE1EC06F00A50300F2BEC07F0000EBD
:10094800086E640E076E15C005F016C006F00AECB6
:1009580007F005C00AF006C00BF0000E0D6E0A0E77
:100968000C6EE1EC06F00A50300F2BEC07F019C0C2
:1009780005F0066A000E086E0F0E076E1DEC06F0F5
:1009880005500610D8A411D01950D8B40ED0050EB1
:1009980015181610D8B405D00A0E15181610D8A4B4
:1009A80004D07AEC05F00FEC05F01A50D8B415D045
:1009B8001950D8A412D0050E15181610D8B405D0A1
:1009C8000A0E15181610D8A408D07AEC05F00FEC0A
:1009D80005F07AEC05F00FEC05F01A50D8A462D7B0
:1009E8001950D8A45FD7050E15181610D8B405D01D
:1009F8000A0E15181610D8A455D71804D8A452D71B
:100A0800000E186E7AEC05F00FEC05F07AEC05F0A4
:100A18000FEC05F047D70A0E0C6E000E096E000E9B
:100A2800086E1FD08A800B0E056EE80EE82EFED7E2
:100A3800052EFCD78A90020E066E290E056E170E3B
:100A4800E82EFED7052EFCD7062EFAD700F0070EA3
:100A5800056E3A0EE82EFED7052EFCD700D0084AC0
:100A6800092A0C50056E066A0550085C0950800A70
:100A7800076E0650800A0758D8A0D4D7000E0B6E10
:100A8800000E0A6E25D08A80050E056EAC0EE82E83
:100A9800FED7052EFCD7200E056E2A0EE82EFED7AF
:100AA800052EFCD78A90020E066E090E056EEC0E16
:100AB800E82EFED7052EFCD7062EFAD700D00B0E4F
:100AC800056EE80EE82EFED7052EFCD70A4A0B2A3B
:100AD8000C50056E066A05500A5C0B50800A076EBA
:100AE8000650800A0758D8B01200CDD7134A142AE6
:100AF800E80E131808E1030E1418D8A404D0000E49
:100B0800146E000E136E13041410D8A40ED0010E28
:100B1800086E020E78EC07F0010E086E080E096EDA
:100B28000E0E0A6E5FEC07F01200010E086E020E40
:100B380078EC07F013C00AF014C00BF0000E0D6E2D
:100B4800640E0C6EE1EC06F00A50300F2BEC07F047
:100B5800000E086E640E076E13C005F014C006F090
:100B68000AEC07F005C00AF006C00BF0000E0D6E87
:100B78000A0E0C6EE1EC06F00A50300F2BEC07F071
:100B880013C005F014C006F0000E086E0A0E076EBA
:100B98000AEC07F00550300F2BEC07F0130E086E27
:100BA800080E096E0B0E0A6E5FEC07F01200000EBD
:100BB8000A6E08AE06D0076C081ED8B0082A010EC7
:100BC8000A6E06AE06D0056C061ED8B0062A010EBF
:100BD8000A1A000E0C6E000E0B6E07500810D8B4DF
:100BE8001CD0010E096E04D0D89007360836092AA1
:100BF80008AEFAD7D8900B360C360750055C08506B
:100C08000658D8A005D00750055E0850065A0B8034
:100C1800D89008320732092EEDD70A50D8B404D03C
:100C28000B6C0C1ED8B00C2A0BC005F00CC006F0DB
:100C38001200000E0A6E06AE06D0056C061ED8B06D
:100C4800062A010E0A6E08AE04D0076C081ED8B03A
:100C5800082A07500810D8B418D0010E096E04D01D
:100C6800D89007360836092A08AEFAD70750055C27
:100C780008500658D8A004D00750055E0850065AF8
:100C8800D89008320732092EF1D70A50D8B404D0C8
:100C9800056C061ED8B0062A05C005F006C006F089
:100CA8001200F80E956E8C908C828C84F00E00D019
:100CB800E82EFDD783CF05F08C94F00E00D0E82EF7
:100CC800FDD78C84F00E00D0E82EFDD78C9405500B
:100CD800800B056E12D08C84F00E00D0E82EFDD764
:100CE80083CF05F08C94F00E00D0E82EFDD78C84CD
:100CF800F00E00D0E82EFDD7E9D7800E0518D8A44D
:100D08001200E9D78C908C92300EA7EC07F0200ED9
:100D1800086E2A0EE82EFED7082EFCD7200E086E85
:100D28002A0EE82EFED7082EFCD7300EA7EC07F0C7
:100D3800F00E00D0E82EFDD7300EA7EC07F0200EFD
:100D4800A7EC07F0010E45EC07F0280E45EC07F07C
:100D58000F0E45EC07F0060E45EC07F0010E45ECCA
:100D680007F0120006009E94050E1524156E000E5D
:100D78001620166EE80E151809E1030E1618D8A4E9
:100D880005D0000E166E000E156E192A3C0E1918A5
:100D9800D8A403D0000E196E1A2A3C0E1A18D8A42B
:100DA8000AD0000E1A6E000E196E000E166E000E96
:100DB800156E010E186E1B921100000E0F6E000EBC
:100DC8000E6E0C500D10D8B41CD0010E106E04D04D
:100DD800D8900C360D36102A0DAEFAD7D8900E36AC
:100DE8000F360C500A5C0D500B58D8A005D00C508B
:100DF8000A5E0D500B5A0E80D8900D320C32102E10
:100E0800EDD70EC00AF00FC00BF012000750081003
:100E1800D8B418D0010E096E04D0D8900736083619
:100E2800092A08AEFAD70750055C08500658D8A01A
:100E380004D00750055E0850065AD8900832073289
:100E4800092EF1D705C005F006C006F01200066E9F
:100E58008C8055EC06F0000E956EF00E00D0E82E52
:100E6800FDD78C928C948C800650F00B076E07503F
:100E7800A7EC07F00638F00B076E0750A7EC07F051
:100E88001200066E8C9055EC06F0000E956EF00E72
:100E980000D0E82EFDD78C928C948C900650F00BE5
:100EA800076E0750A7EC07F00638F00B076E0750DF
:100EB800A7EC07F01200000E0D6E000E0D6E0FD09D
:100EC8000D5008240B6E000E09200C6E0BC0F6FFA7
:100ED8000CC0F7FF0800F5502BEC07F00D2A0A505C
:100EE8000D5CD8B01200ECD7096E0904D8A405D05F
:100EF8000850800F45EC07F01200020E0918D8A41C
:100F080012000850C00F45EC07F0120000EE13F075
:100F1800080EEE6AE806FDE11B901B92000EF86EC3
:100F2800080EF76E000114EF04F0086E0850D8A4FC
:100F380003D00E0E45EC07F00804D8A412000C0EDE
:100F480045EC07F01200056E0F0E8C16F00E051614
:100F580005508C128C84F00E00D0E82EFDD78C94AE
:0A0F68001200010E45EC07F0120024
:020000040020DA
:08000000FFFFFFFFFFFFFFFF00
:020000040030CA
:0E0000000002181EFF8181FF0FC00FE00F40AD
:00000001FF
