:020000040000FA
:0400000089EF3EF056
:087BDE00010E55EC3EF012000F
:107BE70053616C69646120524230203D204F464604
:107BF700002F6E0F0E8C16F00E2F162F508C128C36
:107C070084F00E00D0E82EFDD78C941200326E322D
:107C170050D8A403D00E0E55EC3EF03204D8A4126F
:107C2700000C0E55EC3EF01200336E3304D8A40559
:107C3700D03250800F55EC3EF01200020E3318D8A8
:107C4700A412003250C00F55EC3EF01200000E3562
:107C57006E000E356E0AD035503224D96E000E33C1
:107C670020DA6EDF506FEC3EF0352A3450355CD8A1
:107C7700B01200F1D7555043204D6F6E69746F7283
:107C87000053616C69646120524230203D204F4EA1
:107C97002000496E674D656361456C65632032302E
:107CA700313900306E8C90E4EC3EF0000E956EF0AA
:107CB7000E00D0E82EFDD78C928C948C903050F02B
:107CC7000B316E3150FCEC3DF03038F00B316E313A
:107CD70050FCEC3DF01200306E8C80E4EC3EF0007E
:107CE7000E956EF00E00D0E82EFDD78C928C948CFA
:107CF700803050F00B316E3150FCEC3DF03038F0F5
:107D07000B316E3150FCEC3DF01200E70EF66E7B46
:107D17000EF76E000EF86E00EE60F010EE11F0092F
:107D270000F5CFEEFFE550E150FAE17C0EF66E7CF0
:107D37000EF76E000EF86E00EE01F010EE2EF00951
:107D470000F5CFEEFFE550E150FAE100EE40F0100C
:107D57000EEE6AE806FDE1000EF86E000115EF3F32
:107D6700F08C908C92300EFCEC3DF0200E326E2A97
:107D77000EE82EFED7322EFCD7200E326E2A0EE8E2
:107D87002EFED7322EFCD7300EFCEC3DF0F00E0065
:107D9700D0E82EFDD7300EFCEC3DF0200EFCEC3D7C
:107DA700F0010E55EC3EF0280E55EC3EF00F0E5547
:107DB700EC3EF0060E55EC3EF0010E55EC3EF0128F
:107DC70000F80E956E8C908C828C84F00E00D0E8B3
:107DD7002EFDD783CF2FF08C94F00E00D0E82EFD28
:107DE700D78C84F00E00D0E82EFDD78C942F5080CE
:107DF7000B2F6E12D08C84F00E00D0E82EFDD783A7
:107E0700CF2FF08C94F00E00D0E82EFDD78C84F0A5
:107E17000E00D0E82EFDD7E9D7800E2F18D8A41270
:107E270000E9D71F0E376E710E366E1E0EE82EFE56
:107E3700D7362EFCD7372EFAD700D0000E956EB462
:107E4700EC3EF0EA0E366EC30EE82EFED7362EFC59
:107E5700D700F0010E0AEC3EF0EFEC3DF093909462
:107E67009CB896AC98AC94260EAF6E000EB06EAB75
:107E77008EAB88AC8A000E326E010E18EC3EF01EF7
:107E87000E326E000E336E100E346E2AEC3EF0008A
:107E97000E396E000E386E010E3824D96E000E3979
:107EA70020DA6EDF50AD6EACA2FED7384A392A39D8
:107EB700BEF2D7395004E10B0E385CD8A0ECD70AD4
:107EC7000EAD6EACA2FED70D0EAD6EACA2FED70006
:107ED7000E3B6E000E3A6E1E0E3A24D96E000E3B14
:107EE70020DA6EDF50AD6EACA2FED73A4A3B2A3B92
:107EF700BEF2D73B5004E1100E3A5CD8A0ECD70A8B
:107F07000EAD6EACA2FED70D0EAD6EACA2FED78144
:107F1700A026D0000E3D6E000E3C6E0D0E3C24D9FF
:107F27006E000E3D20DA6EDF50AD6EACA2FED73C80
:107F37004A3D2A3DBEF2D73D5004E1100E3C5CD8C5
:107F4700A0ECD7000E326E020E18EC3EF00D0E328A
:107F57006E000E336E100E346E2AEC3EF025D00004
:107F67000E3F6E000E3E6E600E3E24D96E000E3F31
:107F770020DA6EDF50AD6EACA2FED73E4A3F2A3FF5
:107F8700BEF2D73F5004E1100E3E5CD8A0ECD700FC
:107F97000E326E020E18EC3EF0600E326E000E339B
:107FA7006E100E346E2AEC3EF00A0EAD6EACA2FED9
:107FB700D70D0EAD6EACA2FED70A0EAD6EACA2FE0B
:107FC700D70D0EAD6EACA2FED71F0E376E710E36F3
:107FD7006E1E0EE82EFED7362EFCD7372EFAD700A8
:107FE700D08AB003D0366A362A01D0366A8A50362C
:097FF70018FE0B36188A6E4BD7F8
:020000040020DA
:08000000FFFFFFFFFFFFFFFF00
:020000040030CA
:0E0000000002181EFF8181FF0FC00FE00F40AD
:00000001FF
