:020000040000FA
:0400000010EF00F00D
:020004000000FA
:0400080000EF02F013
:10002000000EF86E020EF76E000EF66E956A936A79
:1000300093869388938A938C810ED56EA00EF26E70
:10004000000E236E000E246E000E256E000E266E2E
:10005000000E276E000E286E010E296E000E2A6E0D
:10006000000E2B6E81A839EF00F06DEC03F032EF3B
:1000700000F081AA40EF00F08CEC03F032EF00F0CA
:0E00800081AC32EF00F0ABEC03F032EF00F099
:0A0200003F065B4F666D7D077F67C8
:10040000F2943C0ED66EB00ED76E81A80AEF02F0C1
:1004100013EF02F081AA0FEF02F085EF02F081AC3A
:100420001000F9EF02F081A618EF02F042EF02F09F
:10043000090E25621EEF02F024EF02F0090E24627D
:100440002AEF02F030EF02F0090E246236EF02F0DC
:100450003CEF02F0090E23626CEF02F06EEF02F047
:10046000090E23626CEF02F072EF02F0090E2362B4
:100470006CEF02F06EEF02F0090E23626CEF02F0F7
:1004800084EF02F0000E256248EF02F04EEF02F01A
:10049000000E246254EF02F05AEF02F0000E2462C4
:1004A00060EF02F066EF02F0000E236278EF02F0D8
:1004B0007AEF02F0000E236278EF02F07EEF02F096
:1004C000000E236278EF02F07AEF02F0000E236252
:1004D00078EF02F084EF02F0232A1000000E236E62
:1004E000242A1000000E236E000E246E252A100010
:1004F00023061000090E236E24061000090E236E39
:10050000090E246E25061000100081A68AEF02F065
:10051000B4EF02F0090E286290EF02F096EF02F0BD
:10052000090E27629CEF02F0A2EF02F0090E27628B
:10053000A8EF02F0AEEF02F0080E2662DEEF02F046
:10054000E1EF02F0080E2662DEEF02F0E5EF02F0C6
:10055000080E2662DEEF02F0E1EF02F0080E2662DE
:10056000DEEF02F0F8EF02F0000E2862BAEF02F0C0
:10057000C0EF02F0000E2762C6EF02F0CCEF02F0EF
:10058000000E2762D2EF02F0D8EF02F0000E2662D2
:10059000EBEF02F0EEEF02F0000E2662EBEF02F05E
:1005A000F2EF02F0000E2662EBEF02F0EEEF02F047
:1005B000000E2662EBEF02F0F8EF02F0262A262A60
:1005C0001000000E266E272A1000000E266E000E68
:1005D000276E282A1000260626061000080E266E12
:1005E00027061000080E266E090E276E280610003A
:1005F000100081A6FEEF02F028EF03F0090E2B6237
:1006000004EF03F00AEF03F0090E2A6210EF03F083
:1006100016EF03F0090E2A621CEF03F022EF03F03D
:10062000090E296252EF03F055EF03F0090E29621B
:1006300052EF03F059EF03F0090E296252EF03F075
:1006400055EF03F0090E296252EF03F06CEF03F04F
:10065000000E2B622EEF03F034EF03F0000E2A623F
:100660003AEF03F040EF03F0000E2A6246EF03F08A
:100670004CEF03F0010E29625FEF03F062EF03F02D
:10068000010E29625FEF03F066EF03F0010E2962AD
:100690005FEF03F062EF03F0010E29625FEF03F0FA
:1006A0006CEF03F0292A292A1000010E296E2A2A4C
:1006B0001000010E296E000E2A6E2B2A100029064A
:1006C00029061000090E296E2A061000090E296E4F
:1006D000090E2A6E2B0610001000F66A2350F6262B
:1006E0000800F5CF8CFF8A90D2EC03F08A80F66A7E
:1006F0002450F6260800F5CF8CFF8A92D2EC03F046
:100700008A82F66A2550F6260800F5CF8CFF8A9477
:10071000D2EC03F08A841200F66A2650F62608000E
:10072000F5CF8CFF8A90D2EC03F08A80F66A2750CE
:10073000F6260800F5CF8CFF8A92D2EC03F08A826D
:10074000F66A2850F6260800F5CF8CFF8A94D2EC82
:1007500003F08A841200F66A2950F6260800F5CFC5
:100760008CFF8A90D2EC03F08A80F66A2A50F62633
:100770000800F5CF8CFF8A92D2EC03F08A82F66AE9
:100780002B50F6260800F5CF8CFF8A94D2EC03F0AC
:100790008A841200640E206ED2EC03F0202ECCEF7F
:1007A00003F012000A0E216EDAEC03F0212ED4EFD2
:1007B00003F01200010E226E0000222EDCEF03F087
:0407C0001200120011
:020000040030CA
:0100010000FE
:0100020018E5
:010003001EDE
:010005008179
:010006008178
:00000001FF
