:020000040000FA
:0400000010EF00F00D
:020004000000FA
:0400080080EF01F094
:10002000000EF86E020EF76E000EF66E956A936A79
:10003000820ED56EA00EF26E000E246E070E236E99
:10004000050E266E020E256E000E276E000E286E1F
:10005000F66A2550F6260800F5CF8CFF8A901DEC35
:1000600002F08A80F66A2650F6260800F5CF8CFF4B
:100070008A921DEC02F08A82F66A2350F626080066
:10008000F5CF8CFF8A941DEC02F08A84F66A245026
:10009000F6260800F5CF8CFF8A961DEC02F08A86C2
:0400A00028EF00F055
:0C0200003F065B4F666D7D077F6779004D
:10030000F294DC0ED66E0B0ED76E8A78010E276241
:100310008CEF01F08EEF01F0272A1000000E276EFF
:1003200092EF01F03B0E286298EF01F09AEF01F096
:10033000282A1000000E286E9EEF01F0010E2462A4
:10034000A4EF01F0AAEF01F0090E2362B0EF01F073
:10035000B6EF01F0020E2362BCEF01F0C2EF01F034
:10036000050E2662C8EF01F0CEEF01F0050E266201
:10037000D4EF01F0DAEF01F0050E2662E0EF01F0B4
:10038000E6EF01F0050E2662ECEF01F0F2EF01F06E
:10039000090E2562F8EF01F0FAEF01F0090E25626F
:1003A000F8EF01F0FEEF01F0090E2562F8EF01F021
:1003B000FAEF01F0090E2562F8EF01F004EF02F008
:1003C000090E2562F8EF01F0FAEF01F0090E25623F
:1003D000F8EF01F0FEEF01F0090E2562F8EF01F0F1
:1003E000FAEF01F0090E2562F8EF01F00CEF02F0D0
:1003F000252A1000262A000E256E1000232A000E42
:10040000266E000E256E1000242A000E236E000EAC
:10041000266E000E256E1000000E246E010E236E57
:10042000000E266E000E256E1000640E206E1DEC70
:1004300002F0202E17EF02F012000A0E216E25ECBA
:1004400002F0212E1FEF02F01200640E226E000057
:0A045000222E27EF02F01200120026
:020000040030CA
:0100010000FE
:0100020018E5
:010003001EDE
:010005008179
:010006008178
:00000001FF
