:020000040000FA
:0400000010EF00F00D
:020004000000FA
:1000200093688C68800E956E01EE00F0000EF86EFD
:10003000070EF76E000EF66EF19EFF0E816223EF43
:1000400000F01DEF00F081A037EF00F081A23AEF41
:1000500000F081A43DEF00F081A640EF00F081A800
:1000600043EF00F081AE53EF00F01DEF00F0410EC2
:1000700046EF00F0420E46EF00F0430E46EF00F070
:10008000440E46EF00F0450E46EF00F0F66E080015
:10009000F5CF8CFF126E400E125CEF6EE92A77EC02
:1000A00000F01DEF00F001EE00F0126AE9CFF6FF5C
:1000B0000800F550EF625EEF00F0122AE92A050E03
:1000C000E96256EF00F001EE00F0050E12626BEFF0
:1000D00000F071EF00F0040E8C6E77EC00F01DEF75
:1000E00000F0090E8C6E77EC00F01DEF00F0FA0EB8
:1000F000106EFA0E116E112E7BEF00F0102E79EFBC
:0401000000F01200F9
:06070000010203040500E4
:0A07400040792430191203780018E4
:020000040030CA
:0100010000FE
:0100020018E5
:010003001EDE
:010005008179
:00000001FF
