:020000040000FA
:0400000010EF00F00D
:020004000000FA
:0400080000EF18F0FD
:10002000956A929096909692969489808D808D8212
:100030008D84000E286E0A0E276E010E2A6E100E99
:10004000F76E000EF66E000E236E000E246E000E8C
:10005000256E000E266E8A6AF00E936EF19EF28671
:10006000F28E010E296237EF00F05BEF00F0020E16
:1000700029623DEF00F0A5EF00F0030E296243EF87
:1000800000F0EFEF00F0040E296249EF00F039EFC5
:1000900001F0050E29624FEF00F083EF01F0060E2C
:1000A000296255EF00F0E9EF01F0070E296231EF08
:1000B00000F008EF02F0010E2A626BEF00F061EF32
:1000C00000F0000E2A6E000E236E010E246E020E4A
:1000D000256E030E266E100EF76E000EF66E52ECB5
:1000E00002F0000E286277EF00F08EEF00F0000EB5
:1000F00023627DEF00F083EF00F02306240625063F
:1001000026066FEF00F0F66A1D0E236E1E0E246E9B
:100110001F0E256E200E266E31EF00F0200E266297
:1001200094EF00F09AEF00F0232A242A252A262AA9
:100130006FEF00F0F66A000E236E010E246E020EC1
:10014000256E030E266E31EF00F0010E2A62B5EF28
:1001500000F0ABEF00F0000E2A6E000E236E010ED1
:10016000246E020E256E030E266E110EF76E000E23
:10017000F66E52EC02F0000E2862C1EF00F0D8EFEC
:1001800000F0000E2362C7EF00F0CDEF00F0230671
:10019000240625062606B9EF00F0F66A100E236E37
:1001A000110E246E120E256E130E266E31EF00F026
:1001B000130E2662DEEF00F0E4EF00F0232A242A7B
:1001C000252A262AB9EF00F0F66A000E236E010EEA
:1001D000246E020E256E030E266E31EF00F0010E26
:1001E0002A62FFEF00F0F5EF00F0000E2A6E000E1D
:1001F000236E010E246E020E256E030E266E120E65
:10020000F76E000EF66E52EC02F0000E28620BEF55
:1002100001F022EF01F0000E236211EF01F017EF61
:1002200001F0230624062506260603EF01F0F66AF0
:100230006A0E236E6B0E246E6C0E256E6D0E266E8E
:1002400031EF00F06D0E266228EF01F02EEF01F085
:10025000232A242A252A262A03EF01F0F66A000E13
:10026000236E010E246E020E256E030E266E31EFF4
:1002700000F0010E2A6249EF01F03FEF01F0000E9D
:100280002A6E000E236E010E246E020E256E030EE2
:10029000266E160EF76E000EF66E52EC02F0000E91
:1002A000286255EF01F06CEF01F0000E23625BEF66
:1002B00001F061EF01F0230624062506260603EF70
:1002C00001F0F66A260E236E270E246E280E256E88
:1002D000290E266E31EF00F0290E266272EF01F032
:1002E00078EF01F0232A242A252A262A4DEF01F04F
:1002F000F66A000E236E010E246E020E256E030EAA
:10030000266E31EF00F0F66A180EF76E000EF66EEC
:10031000010E236E000E246E000E256E000E266E5A
:1003200052EC02F0070E236298EF01F09BEF01F010
:10033000232A90EF01F0080E236E242A52EC02F0DB
:10034000000E236E020E246E000E256E000E266E29
:1003500052EC02F0070E2462B0EF01F0B3EF01F0AF
:10036000242AA8EF01F0080E246E252A52EC02F090
:10037000000E236E000E246E020E256E000E266EF9
:1003800052EC02F0070E2562C8EF01F0CBEF01F04E
:10039000252AC0EF01F0080E256E262A52EC02F045
:1003A000000E236E000E246E000E256E020E266EC9
:1003B00052EC02F0080E2662E0EF01F0E3EF01F0EC
:1003C000262AD8EF01F0000E266E52EC02F031EF33
:1003D00000F0F66A190EF76E000EF66E000E236E30
:1003E000000E246E000E256E000E266EF8EF01F052
:1003F00052EC02F0070E236200EF02F006EF02F06B
:10040000232A242A252A262AF8EF01F031EF00F0CA
:10041000010E2A6218EF02F00EEF02F0000E2A6EB3
:10042000000E236E010E246E020E256E030E266E44
:10043000200EF76E000EF66E52EC02F0000E2862EF
:1004400024EF02F03BEF02F0000E23622AEF02F0ED
:1004500030EF02F023062406250626061CEF02F0E4
:10046000F66A0F0E236E100E246E110E256E120EFC
:10047000266E31EF00F0120E266294EF00F09AEF34
:1004800000F0232A242A252A262A6FEF00F0F66A94
:10049000000E236E010E246E020E256E030E266ED4
:1004A00031EF00F027C020F05AEC02F0202E54EF7C
:1004B00002F01200050E216E62EC02F0212E5CEFBC
:1004C00002F01200640E226E6AEC02F0222E64EF3B
:1004D00002F01200F66A2350F6260800F5CF8CFFD2
:1004E000899000008980F66A2450F6260800F5CF2E
:1004F0008CFF8D9000008D80F66A2550F62608004E
:10050000F5CF8CFF8D9200008D82F66A2650F6267C
:0E0510000800F5CF8CFF8D9400008D84120042
:1010000000000000370639505C395C5478505C3879
:10101000775E5C50796D003E733900090F00000067
:021020000000CE
:1011000000000000390639385C005B3F0667400686
:0411100000000000DB
:10120000000000003877001C065E7700796D003E14
:10121000547700796D7379390679005E79007C0620
:101220003906393879787709006D0600673E067906
:1012300050796D00377754787954795078790079FE
:10124000540079673E0638067C50065C005E797C67
:10125000796D0073795E7738797750007477390645
:0E1260007700775E79387754787900000000C7
:1016000000000000385C00673E7900545C003779C8
:1016100000377778770400377900773806377954C0
:06162000787700000000D5
:0A18000000103021034250180800C8
:0819000021034250180C446061
:102000000000000000000073505C71790039741CFE
:1020100073793779003877007306546F77000000C2
:022020000000BE
:103000006AEC02F0F29081A810EF18F081AA21EF8B
:1030100018F081AC32EF18F081AE43EF18F01000D9
:103020000F0E936E8A6A81A054EF18F081A266EFAA
:1030300018F081A478EF18F081A68EEF18F096EFC3
:1030400018F00F0E936E8A6A81A05AEF18F081A2D1
:103050006CEF18F081A496EF18F081A696EF18F0A7
:1030600096EF18F00F0E936E8A6A81A060EF18F049
:1030700081A272EF18F081A496EF18F081A692EF6A
:1030800018F096EF18F00F0E936E8A6A81A07EEF0B
:1030900018F081A282EF18F081A486EF18F081A6C3
:1030A0008AEF18F096EF18F0010E296E010E2A6EC5
:1030B00096EF18F0020E296E010E2A6E96EF18F0A8
:1030C000030E296E010E2A6E96EF18F0040E296E7B
:1030D000010E2A6E96EF18F0050E296E010E2A6E6B
:1030E00096EF18F0060E296E010E2A6E96EF18F074
:1030F000070E296E010E2A6E96EF18F0050E276E48
:1031000096EF18F0070E276E96EF18F00A0E276E4E
:1031100096EF18F0140E276E96EF18F0000E286E3A
:1031200096EF18F0010E286E96EF18F0F00E936EE1
:0231300010008D
:020000040030CA
:0100010000FE
:0100020018E5
:010003001EDE
:010005008179
:010006008178
:00000001FF
